:100000000C9424010C9441010C9441010C94410185
:100010000C9441010C9441010C9441010C94410158
:100020000C9441010C9441010C9441010C94000882
:100030000C9441010C9441010C94E4070C9441018F
:100040000C9441010C9441010C94D8060C9441018C
:100050000C9441010C9441010C9441010C94410118
:100060000C9441010C944101000000000000005F6D
:1000700000000007000700147F147F14242A7F2A41
:10008000122313086462364955225000050300000C
:10009000001C2241000041221C0014083E081408E4
:1000A000083E0808005030000008080808080060F2
:1000B00060000020100804023E5149453E00427F86
:1000C000400042615149462141454B311814127F8D
:1000D0001027454545393C4A494930017109050316
:1000E0003649494936064949291E0036360000007E
:1000F0005636000008142241001414141414004150
:100100002214080201510906324979413E7E11113B
:10011000117E7F494949363E414141227F4141227A
:100120001C7F494949417F090909013E4149497AF2
:100130007F0808087F00417F41002040413F017F48
:10014000081422417F404040407F020C027F7F0420
:1001500008107F3E4141413E7F090909063E415159
:10016000215E7F09192946464949493101017F012C
:10017000013F4040403F1F2040201F3F4038403F4C
:100180006314081463070870080761514945430068
:100190007F41410002040810200041417F00040219
:1001A0000102044040404040000102040020545439
:1001B00054787F48444438384444442038444448C0
:1001C0007F3854545418087E0901020C5252523E92
:1001D0007F0804047800447D40002040443D007FB7
:1001E0001028440000417F40007C041804787C08FB
:1001F00004047838444444387C1414140808141453
:10020000187C7C080404084854545420043F44409B
:10021000203C4040207C1C2040201C3C4030403C86
:1002200044281028440C5050503C4464544C440022
:100230000836410000007F00000041360800100829
:10024000081008000000000011241FBECFEFD8E006
:10025000DEBFCDBF16E0A0E0B1E0E6E6F3E102C00C
:1002600005900D92AA35B107D9F727E0AAE5B6E0C7
:1002700001C01D92A53EB207E1F70E944D080C9403
:10028000B1090C9400008FE187B918B8089543981C
:1002900028E030E090E84098482F492311F0419A37
:1002A00001C04198409A969521503109A1F7439A8F
:1002B00008954498449A81E20E94470188EC0E9484
:1002C000470186E00E94470183E10E94470180E2E6
:1002D0000E9447018CE00E944701429A0895CF9303
:1002E000C62F4298877080640E9447018C2F8068D7
:1002F0000E944701429ACF910895CF93DF9360E027
:1003000080E00E946F01D6E007C080E00E944701B4
:10031000C150D9F7D15011F0C4E5F7CF60E080E0CB
:100320000E946F01DF91CF910895EF92FF920F939A
:100330001F93CF93DF934423E1F0162FC82FE22EB3
:10034000F32ED42FD80F6C2F812F0E946F01002322
:1003500031F0F701808180950E94470104C0F701C8
:1003600080810E944701CF5FFFEFEF1AFF0ACD1394
:10037000EACFDF91CF911F910F91FF90EF900895F9
:100380000F931F93CF93DF9390E08C01000F111F09
:10039000000F111F800F911FC0E0D0E08C01005AA8
:1003A0001109F801EC0FFD1FE859FF4F84910E94DD
:1003B00047012196C530D105A1F7DF91CF911F915B
:1003C0000F910895CF93DF93FC012081222309F43C
:1003D00040C0EC0180916306811106C080916206E5
:1003E000811102C00E947D016091630680916206C6
:1003F0000E946F0188818A3039F00E94C00180918B
:1004000063068A5F8093630680E00E9447019091B3
:100410006306913518F488818A3051F48091620620
:10042000853030F48F5F80936206109263060DC0B2
:1004300080916206853049F4903518F488818A30BD
:1004400021F4109263061092620621968881811130
:10045000C1CFDF91CF9108958F929F92AF92BF92BB
:10046000CF92DF92EF92FF920F931F93CF93DF9380
:10047000C42E0E946F010F2EF3E0EF2EF12CF02D11
:1004800008EE13E0D12C0F2EFAE0AF2EB12CF02D98
:1004900011C0F40181914F010E9447018C169D0605
:1004A000C1F7C801B5010E94CA088B01F1E0EF1A3B
:1004B000F108F1F0C601B8010E94CA089C01220FA0
:1004C000331F880F991F880F991F880F991F820F5C
:1004D000931FB8010E94CA08EB01CC0FDD1FCC0F9F
:1004E000DD1FCE018E519E4F4C01CA51DE4FD1CF40
:1004F000DF91CF911F910F91FF90EF90DF90CF9000
:10050000BF90AF909F908F9008950F931F93CF93BC
:10051000DF93CFE1D4E007E116E089910E94470123
:10052000C017D107D1F72FEF83ED90E32150804022
:100530009040E1F700C000000E947D01DF91CF9163
:100540001F910F910895F89484E690E0299AEFECBA
:10055000F7E03197F1F700C000002998EFE9FFE0DC
:100560003197F1F700C00000019781F77894089562
:10057000F8948AEF90E0299AEFECF7E03197F1F7E1
:1005800000C000002998EFECF7E03197F1F700C0C8
:100590000000019781F778940895F999FECF92BDF4
:1005A00081BDF89A80B50895F999FECF92BD81BDBD
:1005B00060BDFA9AF99AF999FECF089580E090E02B
:1005C0000E94CD028F3029F481E090E00E94CD029C
:1005D000089580E00895CF9390915F06981758F49E
:1005E000C82F6FE080E090E00E94D4026C2F81E081
:1005F00090E00E94D402CF91089524E237E040E3D6
:1006000057E00AC010823C96E817F907D9F72F5F28
:100610003F4F2417350729F0C90180549F4FF90136
:10062000F1CF08959F92AF92BF92CF92DF92EF9257
:10063000FF920F931F93CF93DF9360E080E00E94BF
:100640006F010F2EF4E2CF2EF7E0DF2EF02D912C6C
:1006500060E0892D0E946F0186010F5F1F4F7601B8
:1006600080ECE80EF11CE6012DC0E881F0E0EE0F11
:10067000FF1FEE0FFF1FEE5CFE4FEA0DFB1D80819A
:1006800082958F70D801EC91F0E0EE0FFF1FEE0F16
:10069000FF1FEE5CFE4FEA0DFB1D2081B0E12B9F9A
:1006A00090011124822B0E9447018FEFA81AB80AEB
:1006B00094E0A916B104C9F62C96045F1F4FCE151D
:1006C000DF0519F0A12CB12CD0CF9394A2E0CA0E73
:1006D000D11CB6E09B12BCCFDF91CF911F910F913F
:1006E000FF90EF90DF90CF90BF90AF909F900895D4
:1006F000CF93C0E060E48C2F0E946F018FEF0E94C7
:100700004701CF5FC630B1F760E080E00E946F0123
:10071000CF91089580916406482F42954F70982F8D
:100720009F7020915E06213051F028F0223049F070
:10073000233059F00FC0992351F091500BC09F5FA7
:1007400009C0442331F0415005C04F5F03C09BE016
:1007500001C04FE0E4E6F6E03181818380E1489F0B
:10076000A00111248BEA989F812D112486958695EE
:100770008695282F220F820F880F880F981B492BF0
:1007800040836091300170E0615071096230710501
:100790007CF081E090E021E0FC01EB59F94F4081D1
:1007A00030832F5F822F90E0342F86179707A4F3B2
:1007B0000895409130014423F1F0A4E6B6E04150A1
:1007C00050E04B59594F31E02D91822F82958F7017
:1007D00090E02F70FC01EE0FFF1FE80FF91FEE0FE6
:1007E000FF1FEE0FFF1FEC5DF84FE20FF11D30838E
:1007F000A417B50749F7089520915D06822F8295C9
:100800008F7090E02F70FC01EE0FFF1FE80FF91FB3
:10081000EE0FFF1FEE0FFF1FEC5DF84FE20FF11D13
:1008200082E080830895982F80915E068130D1F018
:1008300028F0823049F18330C9F14AC094135BC07B
:10084000E22FF0E0462F50E041505109E417F50740
:1008500009F440C061114FC081E02B3009F44BC056
:1008600080E00895941338C0E22FF0E0462F50E066
:100870004F5F5F4FE417F507F1F16B3079F581E0D9
:100880002223C9F180E0089526132AC0642F70E066
:10089000292F30E0215031096217730719F19111A6
:1008A00023C081E04F3039F180E0089526131EC047
:1008B000642F70E0292F30E02F5F3F4F62177307DE
:1008C000B9F09F30B9F481E04423A9F080E00895A5
:1008D00080E0089581E0089580E0089580E0089523
:1008E00080E0089581E0089580E0089580E0089513
:1008F00081E0089580E008950F931F93CF93DF93D5
:1009000060E080E00E946F01CAE0D2E002E014E003
:1009100089910E944701C017D107D1F7409130015A
:1009200064E185E00E942C020E94B8020E94B80295
:100930000E94B8020E94B8020E94B8021092E40716
:10094000809130010E94EB02DF91CF911F910F91B6
:100950000895EF92FF920F931F93CF93DF938091AF
:100960006406E82EE694E694E694E6948F70F82EFA
:1009700040915D06242F2F7042954F70682F8E2D69
:100980000E941304811107C08091300190E001970B
:10099000029764F425C081E080932F01809130019B
:1009A0008F5F809330010E94B8021AC005E616E0FE
:1009B000C1E0D0E0F80141918F01242F2F704295C2
:1009C0004F706F2D8E2D0E94130481110E947C04A4
:1009D00021968091300190E00197C817D90754F310
:1009E000DF91CF911F910F91FF90EF90089599B1F2
:1009F00093FD08C0813081F110925E064D9B20C0AE
:100A000081E00895992334F0882349F181E08093AF
:100A10005E06F4CF189906C0833021F182E08093FE
:100A20005E06ECCF96FD06C0823021F083E0809315
:100A30005E06E4CF95FD0EC085E080935E06DECFB6
:100A40008FE39CE90197F1F700C000004D9BF8CFC0
:100A500081E0089580E008959923C4F606C0189BAC
:100A6000DDCF06C096FDE6CFE1CF189BD7CFDACF1A
:100A700096FFDCCFDFCF5F926F927F928F929F9233
:100A8000AF92BF92CF92DF92EF92FF920F931F939C
:100A9000CF93DF9380916006909161060E94430995
:100AA0000E94FD02E4E6F6E085E7808386E7818325
:100AB00081E08093E4070F2EFCE0EF2EF12CF02D67
:100AC000612C77247394D12C0F2EF9E1CF2EF02DC9
:100AD0006894882481F80F2EF3E09F2EF02D0F2EBE
:100AE000F9E1AF2EF02DB12C0E94A9040E94FD0265
:100AF00080912F01882309F44CC00E943E09282FC1
:100B0000207F8F709927B7010E94CA08822B2091FD
:100B10003001222379F0E4E6F6E030E02C59394F39
:100B2000472D9191891301C04D2D2E173F07C9F70D
:100B3000442319F380935D0660922F012AC0C0E020
:100B4000D0E0852D0E94F70480915E06853071F01B
:100B50008FED9EE20197F1F700C000002196C017CB
:100B6000D1077CF38091E4078111BECF0E94DE02A1
:100B700080935F060E947D010E94FD0282E08093C7
:100B8000300110925E0629C050905E060A2D1B2D82
:100B9000D6CF0E94FC030E948A030E94D9030E94C0
:100BA00012030E9478034091300161E484E00E94C6
:100BB0002C0280913101823029F0833039F081306C
:100BC00019F702C0082D03C0092D01C004E05090A0
:100BD0005E06C09E80011124B2CFDF91CF911F919C
:100BE0000F91FF90EF90DF90CF90BF90AF909F90CC
:100BF0008F907F906F905F900895CF93DF936DE318
:100C000084E00E946F01C0E0D0E0E0913101F0E0AB
:100C1000EE0FFF1FEE0FFF1FEE51FE4FEC0FFD1FFB
:100C200080810E9447012196C430D10571F760E0B0
:100C300080E00E946F01DF91CF910895EF92FF92C3
:100C40000F93CF93DF938FE39CE90197F1F700C0F7
:100C500000000E947D010E947D0160E080E00E9412
:100C60006F010E9485020E94DE0280935F06D0E041
:100C7000C1E00F2EF3E0EF2EF12CF02D0E94FD05C8
:100C80000C2F01702FE336E04AE163E084E10E941B
:100C900095010C2F027027E136E048E264E084E120
:100CA0000E94950100E022E034E04DE165E084E13E
:100CB0000E94950140915F0662E385E00E942C024C
:100CC000DF5F4A9916C0C13099F58D2F90E090935F
:100CD0006106809360062FE336E04AE163E084E139
:100CE0000E9495010E94A3020E947D010E943B0583
:100CF0001CC04B9904C0C130F1F0C69516C04F9985
:100D000004C0C230D9F0CC0F10C04A990EC0C23016
:100D100061F48091310190E00196B7010E94CA0808
:100D2000809331014A9BFECFC2E04D99A7CF0BC003
:100D30004B9BE3CFE4CF4F9BE6CF03C04A99F5CF5F
:100D4000E8CF89B1F2CF80E090E0DF91CF910F91B1
:100D5000FF90EF9008959093C5008093C400E1EC5C
:100D6000F0E0808188698083E2ECF0E08081866039
:100D700080830895E0ECF0E0908195FFFDCF8093B3
:100D8000C60008950F931F93CF93FC0180818823A1
:100D900059F08F01C0E00E94BA06CF5FF801EC0F56
:100DA000F11D80818111F7CFCF911F910F9108958F
:100DB0001F920F920FB60F9211242F933F934F93D0
:100DC0005F936F937F938F939F93AF93BF93EF93B3
:100DD000FF9380915C06882371F0299A8EE391E05D
:100DE0000E94C2068091C60080932D018DE291E0A1
:100DF0000E94E2012998FF91EF91BF91AF919F91DD
:100E00008F917F916F915F914F913F912F910F90B3
:100E10000FBE0F901F901895CF93DF934A9908C08B
:100E20008FE39CE90197F1F700C000004A9BF8CFDF
:100E30000E947D014A9B52C0C0E0D1E0109263063F
:100E4000D093620680E491E00E94E201C13059F043
:100E500018F0C23099F40CC08AE491E00E94E201DB
:100E6000189B72C01CC08FE491E00E94E20169C02F
:100E700084E591E00E94E201C2E063C018990FC0CE
:100E8000CC2309F461C0C15018991AC08FE39CE9C2
:100E90000197F1F700C00000189BF8CF11C04E99E0
:100EA0000FC0C23011F45CC0C0E0CF5F4E9908C0E3
:100EB0008FE39CE90197F1F700C000004E9BF8CF4B
:100EC0008FE39CE90197F1F700C000004A99B6CF83
:100ED000C13049F018F0C33059F00EC087E690E0F9
:100EE0000E94AB0609C08FEC90E00E94AB0604C0E4
:100EF00084E09DE00E94AB0681E080935C06109246
:100F000063061092620689E591E00E94C206789419
:100F10004A9908C08FE39CE90197F1F700C00000EF
:100F20004A9BF8CF0E947D014D99FECFE1ECF0E0A5
:100F300080818F778083F8940E947D0110925C06F7
:100F40002CC0189BA0CFABCF4E9BAECF1CC0109235
:100F50006306D093620680E491E00E94E20188CFAC
:100F60008FE39CE90197F1F700C000004A99EFCFA9
:100F7000C3CF10926306D093620680E491E00E9492
:100F8000E201C0E069CF8FE39CE90197F1F700C06F
:100F900000004A99EECFC0E09BCFDF91CF9108953A
:100FA00092E094BD25E025BD87BD90936E00089525
:100FB0008DE08093810088E0809389001092880002
:100FC00082E080936F0008951F920F920FB60F92E8
:100FD00011248F9380910401882361F080915B0636
:100FE000882321F0299A10925B0604C0299881E099
:100FF00080935B068F910F900FBE0F901F901895F6
:101000001F920F920FB60F9211242F933F934F937D
:101010005F936F937F938F939F93AF93BF93EF9360
:10102000FF9380915A06883220F48F5F80935A068E
:1010300002C010925A06E0915A06F0E0EB5FFE4FB4
:10104000808186950E94D007E0915A06F0E0EB5F20
:10105000FE4F8081811103C01092040103C081E022
:1010600080930401FF91EF91BF91AF919F918F9178
:101070007F916F915F914F913F912F910F900FBE94
:101080000F901F9018958AB183718AB92098219A80
:101090008CEE8BB981E085B908950E9443010E94CE
:1010A00059010E947D010E9443087894C0E0D0E07D
:1010B000E12C11E0F12C0F2EFFE6CF2ED12CF02DDC
:1010C000012F209709F00F2D2AE631E044E262E07B
:1010D00084E10E949501012FC130D10509F00F2D47
:1010E0002EE831E044E163E084E10E949501012FA4
:1010F000C230D10509F00F2D22EA31E040E464E06E
:1011000084E10E9495014F9907C0C230D105C9F111
:1011100021964F9BFECF07C04B9905C02097A1F1A8
:1011200021974B9BFECF4A99CBCFC130D10551F0CF
:10113000C230D10551F02097C9F40E940C07C0E0DD
:10114000D0E014C00E941E0611C0EE2049F0F894B1
:10115000F60180818D7F8083C2E0D0E0EF2C06C055
:1011600078940E94D807C2E0D0E0E12E4A9BFECFDF
:101170008FE39CE90197F1F700C000000E947D0118
:101180009FCF4B9BCDCF03C04A999ACFD6CF4A9BD6
:10119000DCCF96CF97FB072E16F4009407D077FD8F
:1011A00009D00E94DE0807FC05D03EF49095819599
:1011B0009F4F0895709561957F4F0895AA1BBB1BA3
:1011C00051E107C0AA1FBB1FA617B70710F0A61B47
:1011D000B70B881F991F5A95A9F780959095BC0168
:1011E000CD0108958F929F92AF92BF92CF92DF92DE
:1011F000EF92FF92CF93DF93EC01688179818A812E
:101200009B81611571058105910521F464E279EDF9
:101210008BE597E02DE133EF41E050E00E944E096D
:1012200049015A019B01AC01A7EAB1E40E946D0992
:101230006B017C01ACEEB4EFA50194010E947B0927
:10124000DC01CB018C0D9D1DAE1DBF1DB7FF03C082
:101250000197A109B04888839983AA83BB839F77AC
:10126000DF91CF91FF90EF90DF90CF90BF90AF9044
:101270009F908F9008950E94F208089580E091E079
:101280000E94F2080895A0E0B0E0809300019093DE
:101290000101A0930201B09303010895052E97FB6D
:1012A0001EF400940E94650957FD07D00E94800932
:1012B00007FC03D04EF40C94650950954095309589
:1012C00021953F4F4F4F5F4F0895909580957095B2
:1012D00061957F4F8F4F9F4F08950E94A209A59F50
:1012E000900DB49F900DA49F800D911D1124089521
:1012F000B7FF0C946D090E946D09821B930B089532
:10130000A1E21A2EAA1BBB1BFD010DC0AA1FBB1F09
:10131000EE1FFF1FA217B307E407F50720F0A21B7B
:10132000B30BE40BF50B661F771F881F991F1A94E8
:1013300069F760957095809590959B01AC01BD0112
:10134000CF010895A29FB001B39FC001A39F700D6C
:10135000811D1124911DB29F700D811D1124911DBD
:061360000895F894FFCF90
:1013660001000000016B716B6B006B716B6B0071A0
:101376006B5E5E6B71717F7F007F8E7F7F007F8EDD
:101386007F7F007F8E71716B6B8E8E7F7F20000159
:10139600020100000000FFFFFFFFFF9999FF7200A6
:1013A60042617564726174653A00393630300034D2
:1013B6003830300033303020006861732062656554
:1013C6006E20737461727465640000027E020038D8
:1013D6005448007C1408007C0810087C007C20100F
:1013E6007C007C207C0078247C0078047C00007ED5
:1013F60020107E007C0404007C1408007C50200031
:101406007C007E4A340078205800700878007820E6
:101416007848780018207800782010780008780836
:10142600007850200000007C0830087C0058201806
:10143600004454280078502000780078106800583E
:101446002018007C827C0084FE8000E4928C00845C
:10145600926C001E10FE009E9262007C9264000256
:10146600F20E006C926C004C927C000000804040B2
:101476004040408000000000000000000000000026
:101486000000000000000000000000000000000056
:101496000000000000000000000000000000000046
:1014A6000000000000000000000000000000000036
:1014B6000000000000000000000000000000003EE8
:1014C600C1800008080808F80000E42212121292EF
:1014D600FC0000FE0402020206FC04020202FC00FA
:1014E600007894121212169C000000000000788406
:1014F60002020202847800021EF08080701E020042
:101506007894121212169C0000FE040202020000D9
:1015160000000000000001010101010000000001BF
:10152600018101000100008100000080000100002F
:10153600808001C020909099890909000000808070
:10154600808080000101010180808000000001018F
:101556000000000000000101010100000001000080
:101566000000000000000000000000000000000075
:1015760000000000007F04040404047F0000000350
:101586001E90D03C0700001F2140404040211E0015
:10159600003948444444247F00001E6140404021F5
:1015A6000000000000000000000000000000000035
:1015B6000000000000000000000000000000000025
:1015C6000000000000000000000000000000000015
:1015D6000000000002030000000000000000000000
:1015E60000000000000000000000000000000000F5
:1015F60000000000000000000000000000000000E5
:1016060000000000000000000000000000000000D4
:1016160000000000000000000000000000000000C4
:1016260000000000000000000000000000000000B4
:1016360000000000000000000000000000000000A4
:101646000000000000000000000000000000000094
:101656000000000000000000000000000000000084
:101666000000007E0A04007C5444007C106C0038A4
:101676004438007C1408006038243C6000220000D6
:10168600000080E0F01888808000F0E0C0000000D4
:10169600F0E000C0F0F0800018F8F0C06030000004
:1016A60018F8F030101818000000000000000000C4
:1016B600000000000000000080C04040C0C0602064
:1016C6002060C080000000000000001E0010001E08
:1016D600121E00000000010383E3311F0F00FF7F8D
:1016E60001073C7E0FC1F81F19191FFEC01FFF66B8
:1016F600060E1C183001FFFE86838383000000005F
:101706000000384E424A828684840404070C0B8B00
:1017160089CF486B0B088AEBEE761C0000000000B0
:101726000000000000000000000000010100C06091
:101736002030101010101010103020206040C08093
:101746000302000000000000000000000009193933
:1017560030F0A0206040C08000000000001113920D
:101766007A0E0603070D11312161C181030E18306F
:1017760060C080000000000000000000000000F0D3
:101786001E030100000080C07018080808181030F9
:1017960060C000010101060408183060C0000000A6
:1017A6000000000000000103061C30E18103020472
:1017B60008183060C00000000000000000000001B2
:1017C600038EF800000001071CF000000000000076
:1017D600000000FF80000000000003061C7040406F
:1017E60040602020202123262C38303060404040A5
:1017F6004043464E5C706040602020202020B0D0E0
:10180600711F00000000000001FF101010080808FA
:10181600080C040603010000000000C03C0700009D
:101826000000000000000000070C181030202020E7
:101836006040404040404040602020202020202042
:1018460020202020202060606070505050585C4658
:101856004743414040404040404060301C17180814
:10186600080808080808080C040406020203010117
:1018760000000000000000003C424200601E027EA4
:10188600003C423C0066187E1866007E107E003CD6
:10189600423C003C424200027E02007E5020000094
:1018A600FE2010FE00FC040400FC241800F824F8B6
:0A18B6000004FC0400FCA040000048
:040000050080063F32
:00000001FF
